{
  "contractName": "AssetLease",
  "abi": [
    {
      "constant": true,
      "inputs": [
        {
          "name": "",
          "type": "uint256"
        }
      ],
      "name": "states",
      "outputs": [
        {
          "name": "",
          "type": "uint8"
        }
      ],
      "payable": false,
      "stateMutability": "view",
      "type": "function"
    },
    {
      "constant": true,
      "inputs": [
        {
          "name": "",
          "type": "uint256"
        }
      ],
      "name": "tenants",
      "outputs": [
        {
          "name": "",
          "type": "address"
        }
      ],
      "payable": false,
      "stateMutability": "view",
      "type": "function"
    },
    {
      "anonymous": false,
      "inputs": [
        {
          "indexed": false,
          "name": "tenant",
          "type": "address"
        },
        {
          "indexed": false,
          "name": "owner",
          "type": "address"
        },
        {
          "indexed": false,
          "name": "rent",
          "type": "uint256"
        }
      ],
      "name": "RentPaid",
      "type": "event"
    },
    {
      "anonymous": false,
      "inputs": [
        {
          "indexed": false,
          "name": "owner",
          "type": "address"
        },
        {
          "indexed": false,
          "name": "assetId",
          "type": "uint256"
        }
      ],
      "name": "AssetUnlocked",
      "type": "event"
    },
    {
      "anonymous": false,
      "inputs": [
        {
          "indexed": false,
          "name": "owner",
          "type": "address"
        },
        {
          "indexed": false,
          "name": "assetId",
          "type": "uint256"
        }
      ],
      "name": "AssetLocked",
      "type": "event"
    },
    {
      "constant": false,
      "inputs": [
        {
          "name": "owner",
          "type": "address"
        },
        {
          "name": "assetId",
          "type": "uint256"
        }
      ],
      "name": "payRent",
      "outputs": [],
      "payable": true,
      "stateMutability": "payable",
      "type": "function"
    },
    {
      "constant": false,
      "inputs": [
        {
          "name": "assetId",
          "type": "uint256"
        }
      ],
      "name": "unlockAsset",
      "outputs": [],
      "payable": false,
      "stateMutability": "nonpayable",
      "type": "function"
    },
    {
      "constant": false,
      "inputs": [
        {
          "name": "assetId",
          "type": "uint256"
        }
      ],
      "name": "lockAsset",
      "outputs": [],
      "payable": false,
      "stateMutability": "nonpayable",
      "type": "function"
    },
    {
      "constant": true,
      "inputs": [],
      "name": "getTenants",
      "outputs": [
        {
          "name": "",
          "type": "address[4]"
        }
      ],
      "payable": false,
      "stateMutability": "view",
      "type": "function"
    },
    {
      "constant": true,
      "inputs": [],
      "name": "getStates",
      "outputs": [
        {
          "name": "",
          "type": "uint8[4]"
        }
      ],
      "payable": false,
      "stateMutability": "view",
      "type": "function"
    },
    {
      "constant": true,
      "inputs": [
        {
          "name": "assetId",
          "type": "uint256"
        }
      ],
      "name": "getState",
      "outputs": [
        {
          "name": "",
          "type": "uint8"
        }
      ],
      "payable": false,
      "stateMutability": "view",
      "type": "function"
    }
  ],
  "bytecode": "0x6060604052341561000f57600080fd5b6107eb8061001e6000396000f30060606040526004361061008e576000357c0100000000000000000000000000000000000000000000000000000000900463ffffffff168063017a9105146100935780631629614e146100d8578063202e5e10146100fb57806344c9af281461013257806353be7ded14610177578063afc58189146101c8578063bd2ba85d146101eb578063d8ab82741461024e575b600080fd5b341561009e57600080fd5b6100b4600480803590602001909190505061029f565b604051808260028111156100c457fe5b60ff16815260200191505060405180910390f35b34156100e357600080fd5b6100f960048080359060200190919050506102c8565b005b610130600480803573ffffffffffffffffffffffffffffffffffffffff169060200190919080359060200190919050506103be565b005b341561013d57600080fd5b610153600480803590602001909190505061054b565b6040518082600281111561016357fe5b60ff16815260200191505060405180910390f35b341561018257600080fd5b61018a610578565b6040518082600460200280838360005b838110156101b557808201518184015260208101905061019a565b5050505090500191505060405180910390f35b34156101d357600080fd5b6101e960048080359060200190919050506105f9565b005b34156101f657600080fd5b61020c60048080359060200190919050506106a0565b604051808273ffffffffffffffffffffffffffffffffffffffff1673ffffffffffffffffffffffffffffffffffffffff16815260200191505060405180910390f35b341561025957600080fd5b6102616106d5565b6040518082600460200280838360005b8381101561028c578082015181840152602081019050610271565b5050505090500191505060405180910390f35b6000816004811015156102ae57fe5b60209182820401919006915054906101000a900460ff1681565b7f3a14c6aa3e15c61c97825b026647b989a91e18aa33b689769475a298922480423382604051808373ffffffffffffffffffffffffffffffffffffffff1673ffffffffffffffffffffffffffffffffffffffff1681526020018281526020019250505060405180910390a16000808260048110151561034357fe5b602091828204019190066101000a81548160ff0219169083600281111561036657fe5b0217905550600060018260048110151561037c57fe5b0160006101000a81548173ffffffffffffffffffffffffffffffffffffffff021916908373ffffffffffffffffffffffffffffffffffffffff16021790555050565b60008082101580156103d1575060038211155b15156103dc57600080fd5b349050336001836004811015156103ef57fe5b0160006101000a81548173ffffffffffffffffffffffffffffffffffffffff021916908373ffffffffffffffffffffffffffffffffffffffff160217905550600160008360048110151561043f57fe5b602091828204019190066101000a81548160ff0219169083600281111561046257fe5b02179055508273ffffffffffffffffffffffffffffffffffffffff166108fc829081150290604051600060405180830381858888f1935050505015156104a757600080fd5b7f791ff5c84f9acebb4b26797f063e5992a2fe426c7b60a97e82d103e9c8b210e4338483604051808473ffffffffffffffffffffffffffffffffffffffff1673ffffffffffffffffffffffffffffffffffffffff1681526020018373ffffffffffffffffffffffffffffffffffffffff1673ffffffffffffffffffffffffffffffffffffffff168152602001828152602001935050505060405180910390a1505050565b6000808260048110151561055b57fe5b602091828204019190069054906101000a900460ff169050919050565b61058061074e565b60016004806020026040519081016040528092919082600480156105ef576020028201915b8160009054906101000a900473ffffffffffffffffffffffffffffffffffffffff1673ffffffffffffffffffffffffffffffffffffffff16815260200190600101908083116105a5575b5050505050905090565b7f867b353f032680758428983522443995b88120a470e436b962c6a9d0d8940af73382604051808373ffffffffffffffffffffffffffffffffffffffff1673ffffffffffffffffffffffffffffffffffffffff1681526020018281526020019250505060405180910390a1600260008260048110151561067557fe5b602091828204019190066101000a81548160ff0219169083600281111561069857fe5b021790555050565b6001816004811015156106af57fe5b016000915054906101000a900473ffffffffffffffffffffffffffffffffffffffff1681565b6106dd61078c565b6000600480602002604051908101604052809291908260048015610744576020028201916000905b82829054906101000a900460ff16600281111561071e57fe5b815260200190600101906020826000010492830192600103820291508084116107055790505b5050505050905090565b6080604051908101604052806004905b600073ffffffffffffffffffffffffffffffffffffffff1681526020019060019003908161075e5790505090565b6080604051908101604052806004905b600060028111156107a957fe5b81526020019060019003908161079c57905050905600a165627a7a72305820471cb4d63ed5dfdac48810b14cf979471df165ed949d75ec5f541cee34445e800029",
  "source": "pragma solidity ^0.4.17;\r\n\r\n\r\ncontract AssetLease {\r\n    enum State {Locked, RentPaid, Unlocked}\r\n    State[4] public states;\r\n    address[4] public tenants;\r\n\r\n    event RentPaid (address tenant, address owner, uint rent);\r\n    event AssetUnlocked (address owner, uint assetId);\r\n    event AssetLocked (address owner, uint assetId);\r\n    \r\n    function payRent(address owner, uint assetId) public payable {\r\n        require (assetId >= 0 && assetId <= 3);\r\n        uint rent = msg.value;\r\n        tenants[assetId] = msg.sender;\r\n        states[assetId] = State.RentPaid;\r\n        owner.transfer(rent);\r\n        emit RentPaid (msg.sender, owner, rent);\r\n    }\r\n\r\n    function unlockAsset(uint assetId) public {\r\n        emit AssetUnlocked (msg.sender, assetId);\r\n        states[assetId] = State.Unlocked;\r\n    }\r\n\r\n    function lockAsset(uint assetId) public {\r\n        emit AssetLocked (msg.sender, assetId);\r\n        states[assetId] = State.Locked;\r\n        tenants[assetId] = 0x0000000000000000000000000000000000000000;\r\n    }\r\n\r\n    function getTenants() public view returns(address[4]) {\r\n        return tenants; \r\n    }\r\n\r\n    function getStates() public view returns(State[4]) {\r\n        return states;\r\n    }\r\n\r\n    function getState(uint assetId) public view returns(State) {\r\n        return states[assetId];\r\n    }\r\n}",
  "sourcePath": "D:\\ORBIT-Workspace\\smartlock-blockchain-dapp\\contracts\\AssetLease.sol",
  "compiler": {
    "name": "solc",
    "version": "0.4.21+commit.dfe3193c.Emscripten.clang"
  },
  "schemaVersion": "2.0.0",
  "updatedAt": "2018-05-22T09:19:58.423Z"
}